{
  "contractName": "Color",
  "abi": [
    {
      "inputs": [],
      "stateMutability": "nonpayable",
      "type": "constructor"
    },
    {
      "anonymous": false,
      "inputs": [
        {
          "indexed": true,
          "internalType": "address",
          "name": "owner",
          "type": "address"
        },
        {
          "indexed": true,
          "internalType": "address",
          "name": "approved",
          "type": "address"
        },
        {
          "indexed": true,
          "internalType": "uint256",
          "name": "tokenId",
          "type": "uint256"
        }
      ],
      "name": "Approval",
      "type": "event"
    },
    {
      "anonymous": false,
      "inputs": [
        {
          "indexed": true,
          "internalType": "address",
          "name": "owner",
          "type": "address"
        },
        {
          "indexed": true,
          "internalType": "address",
          "name": "operator",
          "type": "address"
        },
        {
          "indexed": false,
          "internalType": "bool",
          "name": "approved",
          "type": "bool"
        }
      ],
      "name": "ApprovalForAll",
      "type": "event"
    },
    {
      "anonymous": false,
      "inputs": [
        {
          "indexed": true,
          "internalType": "address",
          "name": "from",
          "type": "address"
        },
        {
          "indexed": true,
          "internalType": "address",
          "name": "to",
          "type": "address"
        },
        {
          "indexed": true,
          "internalType": "uint256",
          "name": "tokenId",
          "type": "uint256"
        }
      ],
      "name": "Transfer",
      "type": "event"
    },
    {
      "inputs": [
        {
          "internalType": "address",
          "name": "to",
          "type": "address"
        },
        {
          "internalType": "uint256",
          "name": "tokenId",
          "type": "uint256"
        }
      ],
      "name": "approve",
      "outputs": [],
      "stateMutability": "nonpayable",
      "type": "function"
    },
    {
      "inputs": [
        {
          "internalType": "address",
          "name": "owner",
          "type": "address"
        }
      ],
      "name": "balanceOf",
      "outputs": [
        {
          "internalType": "uint256",
          "name": "",
          "type": "uint256"
        }
      ],
      "stateMutability": "view",
      "type": "function",
      "constant": true
    },
    {
      "inputs": [],
      "name": "baseURI",
      "outputs": [
        {
          "internalType": "string",
          "name": "",
          "type": "string"
        }
      ],
      "stateMutability": "view",
      "type": "function",
      "constant": true
    },
    {
      "inputs": [
        {
          "internalType": "uint256",
          "name": "",
          "type": "uint256"
        }
      ],
      "name": "colors",
      "outputs": [
        {
          "internalType": "string",
          "name": "",
          "type": "string"
        }
      ],
      "stateMutability": "view",
      "type": "function",
      "constant": true
    },
    {
      "inputs": [
        {
          "internalType": "uint256",
          "name": "tokenId",
          "type": "uint256"
        }
      ],
      "name": "getApproved",
      "outputs": [
        {
          "internalType": "address",
          "name": "",
          "type": "address"
        }
      ],
      "stateMutability": "view",
      "type": "function",
      "constant": true
    },
    {
      "inputs": [
        {
          "internalType": "address",
          "name": "owner",
          "type": "address"
        },
        {
          "internalType": "address",
          "name": "operator",
          "type": "address"
        }
      ],
      "name": "isApprovedForAll",
      "outputs": [
        {
          "internalType": "bool",
          "name": "",
          "type": "bool"
        }
      ],
      "stateMutability": "view",
      "type": "function",
      "constant": true
    },
    {
      "inputs": [],
      "name": "name",
      "outputs": [
        {
          "internalType": "string",
          "name": "",
          "type": "string"
        }
      ],
      "stateMutability": "view",
      "type": "function",
      "constant": true
    },
    {
      "inputs": [
        {
          "internalType": "uint256",
          "name": "tokenId",
          "type": "uint256"
        }
      ],
      "name": "ownerOf",
      "outputs": [
        {
          "internalType": "address",
          "name": "",
          "type": "address"
        }
      ],
      "stateMutability": "view",
      "type": "function",
      "constant": true
    },
    {
      "inputs": [
        {
          "internalType": "address",
          "name": "from",
          "type": "address"
        },
        {
          "internalType": "address",
          "name": "to",
          "type": "address"
        },
        {
          "internalType": "uint256",
          "name": "tokenId",
          "type": "uint256"
        }
      ],
      "name": "safeTransferFrom",
      "outputs": [],
      "stateMutability": "nonpayable",
      "type": "function"
    },
    {
      "inputs": [
        {
          "internalType": "address",
          "name": "from",
          "type": "address"
        },
        {
          "internalType": "address",
          "name": "to",
          "type": "address"
        },
        {
          "internalType": "uint256",
          "name": "tokenId",
          "type": "uint256"
        },
        {
          "internalType": "bytes",
          "name": "_data",
          "type": "bytes"
        }
      ],
      "name": "safeTransferFrom",
      "outputs": [],
      "stateMutability": "nonpayable",
      "type": "function"
    },
    {
      "inputs": [
        {
          "internalType": "address",
          "name": "operator",
          "type": "address"
        },
        {
          "internalType": "bool",
          "name": "approved",
          "type": "bool"
        }
      ],
      "name": "setApprovalForAll",
      "outputs": [],
      "stateMutability": "nonpayable",
      "type": "function"
    },
    {
      "inputs": [
        {
          "internalType": "bytes4",
          "name": "interfaceId",
          "type": "bytes4"
        }
      ],
      "name": "supportsInterface",
      "outputs": [
        {
          "internalType": "bool",
          "name": "",
          "type": "bool"
        }
      ],
      "stateMutability": "view",
      "type": "function",
      "constant": true
    },
    {
      "inputs": [],
      "name": "symbol",
      "outputs": [
        {
          "internalType": "string",
          "name": "",
          "type": "string"
        }
      ],
      "stateMutability": "view",
      "type": "function",
      "constant": true
    },
    {
      "inputs": [
        {
          "internalType": "uint256",
          "name": "index",
          "type": "uint256"
        }
      ],
      "name": "tokenByIndex",
      "outputs": [
        {
          "internalType": "uint256",
          "name": "",
          "type": "uint256"
        }
      ],
      "stateMutability": "view",
      "type": "function",
      "constant": true
    },
    {
      "inputs": [
        {
          "internalType": "address",
          "name": "owner",
          "type": "address"
        },
        {
          "internalType": "uint256",
          "name": "index",
          "type": "uint256"
        }
      ],
      "name": "tokenOfOwnerByIndex",
      "outputs": [
        {
          "internalType": "uint256",
          "name": "",
          "type": "uint256"
        }
      ],
      "stateMutability": "view",
      "type": "function",
      "constant": true
    },
    {
      "inputs": [
        {
          "internalType": "uint256",
          "name": "tokenId",
          "type": "uint256"
        }
      ],
      "name": "tokenURI",
      "outputs": [
        {
          "internalType": "string",
          "name": "",
          "type": "string"
        }
      ],
      "stateMutability": "view",
      "type": "function",
      "constant": true
    },
    {
      "inputs": [],
      "name": "totalSupply",
      "outputs": [
        {
          "internalType": "uint256",
          "name": "",
          "type": "uint256"
        }
      ],
      "stateMutability": "view",
      "type": "function",
      "constant": true
    },
    {
      "inputs": [
        {
          "internalType": "address",
          "name": "from",
          "type": "address"
        },
        {
          "internalType": "address",
          "name": "to",
          "type": "address"
        },
        {
          "internalType": "uint256",
          "name": "tokenId",
          "type": "uint256"
        }
      ],
      "name": "transferFrom",
      "outputs": [],
      "stateMutability": "nonpayable",
      "type": "function"
    },
    {
      "inputs": [
        {
          "internalType": "string",
          "name": "_color",
          "type": "string"
        }
      ],
      "name": "mint",
      "outputs": [],
      "stateMutability": "nonpayable",
      "type": "function"
    }
  ],
  "bytecode": "0x60806040523480156200001157600080fd5b506040518060400160405280600581526020016421b7b637b960d91b8152506040518060400160405280600581526020016421a7a627a960d91b815250620000666301ffc9a760e01b620000d060201b60201c565b81516200007b90600690602085019062000155565b5080516200009190600790602084019062000155565b50620000a46380ac58cd60e01b620000d0565b620000b6635b5e139f60e01b620000d0565b620000c863780e9d6360e01b620000d0565b505062000201565b6001600160e01b0319808216141562000130576040805162461bcd60e51b815260206004820152601c60248201527f4552433136353a20696e76616c696420696e7465726661636520696400000000604482015290519081900360640190fd5b6001600160e01b0319166000908152602081905260409020805460ff19166001179055565b828054600181600116156101000203166002900490600052602060002090601f0160209004810192826200018d5760008555620001d8565b82601f10620001a857805160ff1916838001178555620001d8565b82800160010185558215620001d8579182015b82811115620001d8578251825591602001919060010190620001bb565b50620001e6929150620001ea565b5090565b5b80821115620001e65760008155600101620001eb565b611e1a80620002116000396000f3fe608060405234801561001057600080fd5b50600436106101215760003560e01c80636352211e116100ad578063b88d4fde11610071578063b88d4fde14610395578063bd11f69d1461045b578063c87b56dd14610478578063d85d3d2714610495578063e985e9c51461053b57610121565b80636352211e146103145780636c0360eb1461033157806370a082311461033957806395d89b411461035f578063a22cb4651461036757610121565b806318160ddd116100f457806318160ddd1461024557806323b872dd1461025f5780632f745c591461029557806342842e0e146102c15780634f6ccce7146102f757610121565b806301ffc9a71461012657806306fdde0314610161578063081812fc146101de578063095ea7b314610217575b600080fd5b61014d6004803603602081101561013c57600080fd5b50356001600160e01b031916610569565b604080519115158252519081900360200190f35b61016961058c565b6040805160208082528351818301528351919283929083019185019080838360005b838110156101a357818101518382015260200161018b565b50505050905090810190601f1680156101d05780820380516001836020036101000a031916815260200191505b509250505060405180910390f35b6101fb600480360360208110156101f457600080fd5b5035610622565b604080516001600160a01b039092168252519081900360200190f35b6102436004803603604081101561022d57600080fd5b506001600160a01b038135169060200135610684565b005b61024d61075f565b60408051918252519081900360200190f35b6102436004803603606081101561027557600080fd5b506001600160a01b03813581169160208101359091169060400135610770565b61024d600480360360408110156102ab57600080fd5b506001600160a01b0381351690602001356107c7565b610243600480360360608110156102d757600080fd5b506001600160a01b038135811691602081013590911690604001356107f2565b61024d6004803603602081101561030d57600080fd5b503561080d565b6101fb6004803603602081101561032a57600080fd5b5035610823565b61016961084b565b61024d6004803603602081101561034f57600080fd5b50356001600160a01b03166108ac565b610169610914565b6102436004803603604081101561037d57600080fd5b506001600160a01b0381351690602001351515610975565b610243600480360360808110156103ab57600080fd5b6001600160a01b038235811692602081013590911691604082013591908101906080810160608201356401000000008111156103e657600080fd5b8201836020820111156103f857600080fd5b8035906020019184600183028401116401000000008311171561041a57600080fd5b91908080601f016020809104026020016040519081016040528093929190818152602001838380828437600092019190915250929550610a7a945050505050565b6101696004803603602081101561047157600080fd5b5035610ad8565b6101696004803603602081101561048e57600080fd5b5035610b81565b610243600480360360208110156104ab57600080fd5b8101906020810181356401000000008111156104c657600080fd5b8201836020820111156104d857600080fd5b803590602001918460018302840111640100000000831117156104fa57600080fd5b91908080601f016020809104026020016040519081016040528093929190818152602001838380828437600092019190915250929550610e02945050505050565b61014d6004803603604081101561055157600080fd5b506001600160a01b0381358116916020013516610f3b565b6001600160e01b0319811660009081526020819052604090205460ff165b919050565b60068054604080516020601f60026000196101006001881615020190951694909404938401819004810282018101909252828152606093909290918301828280156106185780601f106105ed57610100808354040283529160200191610618565b820191906000526020600020905b8154815290600101906020018083116105fb57829003601f168201915b5050505050905090565b600061062d82610f69565b6106685760405162461bcd60e51b815260040180806020018281038252602c815260200180611d0f602c913960400191505060405180910390fd5b506000908152600460205260409020546001600160a01b031690565b600061068f82610823565b9050806001600160a01b0316836001600160a01b031614156106e25760405162461bcd60e51b8152600401808060200182810382526021815260200180611d936021913960400191505060405180910390fd5b806001600160a01b03166106f4610f76565b6001600160a01b03161480610715575061071581610710610f76565b610f3b565b6107505760405162461bcd60e51b8152600401808060200182810382526038815260200180611c626038913960400191505060405180910390fd5b61075a8383610f7a565b505050565b600061076b6002610fe8565b905090565b61078161077b610f76565b82610ff3565b6107bc5760405162461bcd60e51b8152600401808060200182810382526031815260200180611db46031913960400191505060405180910390fd5b61075a838383611097565b6001600160a01b03821660009081526001602052604081206107e990836111e3565b90505b92915050565b61075a83838360405180602001604052806000815250610a7a565b60008061081b6002846111ef565b509392505050565b60006107ec82604051806060016040528060298152602001611cc4602991396002919061120b565b60098054604080516020601f60026000196101006001881615020190951694909404938401819004810282018101909252828152606093909290918301828280156106185780601f106105ed57610100808354040283529160200191610618565b60006001600160a01b0382166108f35760405162461bcd60e51b815260040180806020018281038252602a815260200180611c9a602a913960400191505060405180910390fd5b6001600160a01b03821660009081526001602052604090206107ec90610fe8565b60078054604080516020601f60026000196101006001881615020190951694909404938401819004810282018101909252828152606093909290918301828280156106185780601f106105ed57610100808354040283529160200191610618565b61097d610f76565b6001600160a01b0316826001600160a01b031614156109e3576040805162461bcd60e51b815260206004820152601960248201527f4552433732313a20617070726f766520746f2063616c6c657200000000000000604482015290519081900360640190fd5b80600560006109f0610f76565b6001600160a01b03908116825260208083019390935260409182016000908120918716808252919093529120805460ff191692151592909217909155610a34610f76565b6001600160a01b03167f17307eab39ab6107e8899845ad3d59bd9653f200f220920489ca2b5937696c318360405180821515815260200191505060405180910390a35050565b610a8b610a85610f76565b83610ff3565b610ac65760405162461bcd60e51b8152600401808060200182810382526031815260200180611db46031913960400191505060405180910390fd5b610ad284848484611222565b50505050565b600a8181548110610ae857600080fd5b600091825260209182902001805460408051601f6002600019610100600187161502019094169390930492830185900485028101850190915281815293509091830182828015610b795780601f10610b4e57610100808354040283529160200191610b79565b820191906000526020600020905b815481529060010190602001808311610b5c57829003601f168201915b505050505081565b6060610b8c82610f69565b610bc75760405162461bcd60e51b815260040180806020018281038252602f815260200180611d64602f913960400191505060405180910390fd5b60008281526008602090815260408083208054825160026001831615610100026000190190921691909104601f810185900485028201850190935282815292909190830182828015610c5a5780601f10610c2f57610100808354040283529160200191610c5a565b820191906000526020600020905b815481529060010190602001808311610c3d57829003601f168201915b505050505090506000610c6b61084b565b9050805160001415610c7f57509050610587565b815115610d405780826040516020018083805190602001908083835b60208310610cba5780518252601f199092019160209182019101610c9b565b51815160209384036101000a600019018019909216911617905285519190930192850191508083835b60208310610d025780518252601f199092019160209182019101610ce3565b6001836020036101000a0380198251168184511680821785525050505050509050019250505060405160208183030381529060405292505050610587565b80610d4a85611274565b6040516020018083805190602001908083835b60208310610d7c5780518252601f199092019160209182019101610d5d565b51815160209384036101000a600019018019909216911617905285519190930192850191508083835b60208310610dc45780518252601f199092019160209182019101610da5565b6001836020036101000a0380198251168184511680821785525050505050509050019250505060405160208183030381529060405292505050919050565b600b816040518082805190602001908083835b60208310610e345780518252601f199092019160209182019101610e15565b51815160209384036101000a600019018019909216911617905292019485525060405193849003019092205460ff16159150610e71905057600080fd5b600a80546001810182556000919091528151610eb4917fc65a7bb8d6351c1cf70c95a316cc6a92839c986682d98bc35f958f4883f9d2a801906020840190611b1c565b50600a5460001901610ec6338261134f565b6001600b836040518082805190602001908083835b60208310610efa5780518252601f199092019160209182019101610edb565b51815160209384036101000a60001901801990921691161790529201948552506040519384900301909220805460ff19169315159390931790925550505050565b6001600160a01b03918216600090815260056020908152604080832093909416825291909152205460ff1690565b60006107ec60028361147d565b3390565b600081815260046020526040902080546001600160a01b0319166001600160a01b0384169081179091558190610faf82610823565b6001600160a01b03167f8c5be1e5ebec7d5bd14f71427d1e84f3dd0314c0f7b2291e5b200ac8c7c3b92560405160405180910390a45050565b60006107ec82611489565b6000610ffe82610f69565b6110395760405162461bcd60e51b815260040180806020018281038252602c815260200180611c36602c913960400191505060405180910390fd5b600061104483610823565b9050806001600160a01b0316846001600160a01b0316148061107f5750836001600160a01b031661107484610622565b6001600160a01b0316145b8061108f575061108f8185610f3b565b949350505050565b826001600160a01b03166110aa82610823565b6001600160a01b0316146110ef5760405162461bcd60e51b8152600401808060200182810382526029815260200180611d3b6029913960400191505060405180910390fd5b6001600160a01b0382166111345760405162461bcd60e51b8152600401808060200182810382526024815260200180611c126024913960400191505060405180910390fd5b61113f83838361075a565b61114a600082610f7a565b6001600160a01b038316600090815260016020526040902061116c908261148d565b506001600160a01b038216600090815260016020526040902061118f9082611499565b5061119c600282846114a5565b5080826001600160a01b0316846001600160a01b03167fddf252ad1be2c89b69c2b068fc378daa952ba7f163c4a11628f55a4df523b3ef60405160405180910390a4505050565b60006107e983836114bb565b60008080806111fe868661151f565b9097909650945050505050565b600061121884848461159a565b90505b9392505050565b61122d848484611097565b61123984848484611664565b610ad25760405162461bcd60e51b8152600401808060200182810382526032815260200180611be06032913960400191505060405180910390fd5b60608161129957506040805180820190915260018152600360fc1b6020820152610587565b8160005b81156112b157600101600a8204915061129d565b60008167ffffffffffffffff811180156112ca57600080fd5b506040519080825280601f01601f1916602001820160405280156112f5576020820181803683370190505b50859350905060001982015b831561134657600a840660300160f81b8282806001900393508151811061132457fe5b60200101906001600160f81b031916908160001a905350600a84049350611301565b50949350505050565b6001600160a01b0382166113aa576040805162461bcd60e51b815260206004820181905260248201527f4552433732313a206d696e7420746f20746865207a65726f2061646472657373604482015290519081900360640190fd5b6113b381610f69565b15611405576040805162461bcd60e51b815260206004820152601c60248201527f4552433732313a20746f6b656e20616c7265616479206d696e74656400000000604482015290519081900360640190fd5b6114116000838361075a565b6001600160a01b03821660009081526001602052604090206114339082611499565b50611440600282846114a5565b5060405181906001600160a01b038416906000907fddf252ad1be2c89b69c2b068fc378daa952ba7f163c4a11628f55a4df523b3ef908290a45050565b60006107e983836117cc565b5490565b60006107e983836117e4565b60006107e983836118aa565b600061121884846001600160a01b0385166118f4565b815460009082106114fd5760405162461bcd60e51b8152600401808060200182810382526022815260200180611bbe6022913960400191505060405180910390fd5b82600001828154811061150c57fe5b9060005260206000200154905092915050565b8154600090819083106115635760405162461bcd60e51b8152600401808060200182810382526022815260200180611ced6022913960400191505060405180910390fd5b600084600001848154811061157457fe5b906000526020600020906002020190508060000154816001015492509250509250929050565b600082815260018401602052604081205482816116355760405162461bcd60e51b81526004018080602001828103825283818151815260200191508051906020019080838360005b838110156115fa5781810151838201526020016115e2565b50505050905090810190601f1680156116275780820380516001836020036101000a031916815260200191505b509250505060405180910390fd5b5084600001600182038154811061164857fe5b9060005260206000209060020201600101549150509392505050565b6000611678846001600160a01b031661198b565b6116845750600161108f565b6000611792630a85bd0160e11b611699610f76565b88878760405160240180856001600160a01b03168152602001846001600160a01b0316815260200183815260200180602001828103825283818151815260200191508051906020019080838360005b838110156117005781810151838201526020016116e8565b50505050905090810190601f16801561172d5780820380516001836020036101000a031916815260200191505b5095505050505050604051602081830303815290604052906001600160e01b0319166020820180516001600160e01b038381831617835250505050604051806060016040528060328152602001611be0603291396001600160a01b0388169190611991565b905060008180602001905160208110156117ab57600080fd5b50516001600160e01b031916630a85bd0160e11b1492505050949350505050565b60009081526001919091016020526040902054151590565b600081815260018301602052604081205480156118a0578354600019808301919081019060009087908390811061181757fe5b906000526020600020015490508087600001848154811061183457fe5b60009182526020808320909101929092558281526001898101909252604090209084019055865487908061186457fe5b600190038181906000526020600020016000905590558660010160008781526020019081526020016000206000905560019450505050506107ec565b60009150506107ec565b60006118b683836117cc565b6118ec575081546001818101845560008481526020808220909301849055845484825282860190935260409020919091556107ec565b5060006107ec565b60008281526001840160205260408120548061195957505060408051808201825283815260208082018481528654600181810189556000898152848120955160029093029095019182559151908201558654868452818801909252929091205561121b565b8285600001600183038154811061196c57fe5b906000526020600020906002020160010181905550600091505061121b565b3b151590565b60606112188484600085856119a58561198b565b6119f6576040805162461bcd60e51b815260206004820152601d60248201527f416464726573733a2063616c6c20746f206e6f6e2d636f6e7472616374000000604482015290519081900360640190fd5b600080866001600160a01b031685876040518082805190602001908083835b60208310611a345780518252601f199092019160209182019101611a15565b6001836020036101000a03801982511681845116808217855250505050505090500191505060006040518083038185875af1925050503d8060008114611a96576040519150601f19603f3d011682016040523d82523d6000602084013e611a9b565b606091505b5091509150611aab828286611ab6565b979650505050505050565b60608315611ac557508161121b565b825115611ad55782518084602001fd5b60405162461bcd60e51b81526020600482018181528451602484015284518593919283926044019190850190808383600083156115fa5781810151838201526020016115e2565b828054600181600116156101000203166002900490600052602060002090601f016020900481019282611b525760008555611b98565b82601f10611b6b57805160ff1916838001178555611b98565b82800160010185558215611b98579182015b82811115611b98578251825591602001919060010190611b7d565b50611ba4929150611ba8565b5090565b5b80821115611ba45760008155600101611ba956fe456e756d657261626c655365743a20696e646578206f7574206f6620626f756e64734552433732313a207472616e7366657220746f206e6f6e20455243373231526563656976657220696d706c656d656e7465724552433732313a207472616e7366657220746f20746865207a65726f20616464726573734552433732313a206f70657261746f7220717565727920666f72206e6f6e6578697374656e7420746f6b656e4552433732313a20617070726f76652063616c6c6572206973206e6f74206f776e6572206e6f7220617070726f76656420666f7220616c6c4552433732313a2062616c616e636520717565727920666f7220746865207a65726f20616464726573734552433732313a206f776e657220717565727920666f72206e6f6e6578697374656e7420746f6b656e456e756d657261626c654d61703a20696e646578206f7574206f6620626f756e64734552433732313a20617070726f76656420717565727920666f72206e6f6e6578697374656e7420746f6b656e4552433732313a207472616e73666572206f6620746f6b656e2074686174206973206e6f74206f776e4552433732314d657461646174613a2055524920717565727920666f72206e6f6e6578697374656e7420746f6b656e4552433732313a20617070726f76616c20746f2063757272656e74206f776e65724552433732313a207472616e736665722063616c6c6572206973206e6f74206f776e6572206e6f7220617070726f766564a264697066735822122036adfeb4334624a0f32dd0d947bc622d935babb4b4769cfa570185c0340deea764736f6c63430007060033",
  "immutableReferences": {},
  "source": "pragma solidity ^0.7.4;\r\n\r\nimport \"@openzeppelin/contracts/token/ERC721/ERC721.sol\";\r\n\r\ncontract Color is ERC721 {\r\n  string[] public colors;\r\n  mapping(string => bool) _colorExists;\r\n\r\n  constructor() ERC721(\"Color\", \"COLOR\") public {\r\n  }\r\n  // E.G. color = \"#FFFFFF\"\r\n  function mint(string memory _color) public {\r\n    require(!_colorExists[_color]);\r\n    colors.push(_color);\r\n    uint _id = (colors.length -1);\r\n    _mint(msg.sender, _id);\r\n    _colorExists[_color] = true;\r\n  }\r\n\r\n}\r\n",
  "sourcePath": "C:/Users/Gunner/Desktop/blockchain/ERC-721/nft/src/contracts/Color.sol",
  "compiler": {
    "name": "solc",
    "version": "0.7.6+commit.7338295f.Emscripten.clang"
  },
  "schemaVersion": "3.3.4",
  "updatedAt": "2021-03-09T07:25:52.616Z",
  "networkType": "ethereum",
  "devdoc": {
    "kind": "dev",
    "methods": {
      "approve(address,uint256)": {
        "details": "See {IERC721-approve}."
      },
      "balanceOf(address)": {
        "details": "See {IERC721-balanceOf}."
      },
      "baseURI()": {
        "details": "Returns the base URI set via {_setBaseURI}. This will be automatically added as a prefix in {tokenURI} to each token's URI, or to the token ID if no specific URI is set for that token ID."
      },
      "getApproved(uint256)": {
        "details": "See {IERC721-getApproved}."
      },
      "isApprovedForAll(address,address)": {
        "details": "See {IERC721-isApprovedForAll}."
      },
      "name()": {
        "details": "See {IERC721Metadata-name}."
      },
      "ownerOf(uint256)": {
        "details": "See {IERC721-ownerOf}."
      },
      "safeTransferFrom(address,address,uint256)": {
        "details": "See {IERC721-safeTransferFrom}."
      },
      "safeTransferFrom(address,address,uint256,bytes)": {
        "details": "See {IERC721-safeTransferFrom}."
      },
      "setApprovalForAll(address,bool)": {
        "details": "See {IERC721-setApprovalForAll}."
      },
      "supportsInterface(bytes4)": {
        "details": "See {IERC165-supportsInterface}. Time complexity O(1), guaranteed to always use less than 30 000 gas."
      },
      "symbol()": {
        "details": "See {IERC721Metadata-symbol}."
      },
      "tokenByIndex(uint256)": {
        "details": "See {IERC721Enumerable-tokenByIndex}."
      },
      "tokenOfOwnerByIndex(address,uint256)": {
        "details": "See {IERC721Enumerable-tokenOfOwnerByIndex}."
      },
      "tokenURI(uint256)": {
        "details": "See {IERC721Metadata-tokenURI}."
      },
      "totalSupply()": {
        "details": "See {IERC721Enumerable-totalSupply}."
      },
      "transferFrom(address,address,uint256)": {
        "details": "See {IERC721-transferFrom}."
      }
    },
    "version": 1
  },
  "userdoc": {
    "kind": "user",
    "methods": {},
    "version": 1
  }
}